:020000040800F2
:10000000B0320020C1010008512400087B21000803
:100010004D24000881030008793200080000000028
:10002000000000000000000000000000D3010008F4
:100030001106000800000000D7010008C5270008CD
:10004000DB010008DB010008DB010008DB01000820
:10005000DB010008DB010008DB010008DB01000810
:10006000DB010008DB010008DB010008DB01000800
:10007000DB010008DB010008DB010008DB010008F0
:10008000DB010008DB010008DB010008DB010008E0
:10009000DB010008DB010008DB010008DB010008D0
:1000A000DB010008DB010008DB010008DB010008C0
:1000B000392900084929000859290008DB010008EE
:1000C000DB010008DB010008DB010008DB010008A0
:1000D000DB01000839300008DB010008DB01000803
:1000E00015060008DB010008DB010008DB01000841
:1000F00069290008DB010008DB010008DB010008BA
:10010000DB010008DB010008DB010008DB0100085F
:10011000DB010008DB010008DB010008DB0100084F
:10012000DB010008DB010008DB010008DB0100083F
:10013000DB010008DB010008DB010008DB0100082F
:10014000DB010008DB010008DB010008DB0100081F
:10015000DB010008DB010008850300086D300008A2
:10016000DB010008DB010008DB010008DB010008FF
:10017000DB010008DB010008DB010008DB010008EF
:10018000DB010008DB010008DB010008DB010008DF
:10019000DB010008DB010008DB010008DB010008CF
:1001A000DB010008DB010008DB010008DFF80CD0F0
:1001B00000F018F800480047F9320008B03200207B
:1001C0000648804706480047FEE7FEE7FEE7FEE7F1
:1001D000FEE7FEE7FEE7FEE7FEE7FEE78D28000804
:1001E000AD010008064C074D06E0E06840F0010351
:1001F00094E8070098471034AC42F6D3FFF7DAFFD3
:100200007C3300089C3300085A49096821F44031C6
:10021000594AC2F804131146D1F804134268114335
:10022000544A11600168496821F480710268516084
:1002300001684A68016942EA012102685160016867
:10024000496821F04071026851600168496882681C
:100250001143026851600168896821F400610268F5
:10026000916001688968C268114302689160434ADD
:10027000816A914218D00168896821F07061026832
:10028000916001688968826A11430268916001681F
:10029000896821F040510268916001688968C26AEA
:1002A0001143026891600BE00168896821F0706178
:1002B000026891600168896821F04051026891608C
:1002C0000168896821F002010268916001688A680A
:1002D000816942EA410102689160016AD1B1016815
:1002E000496841F40061026851600168496821F47D
:1002F00060410268516001684A68416A491E4FF4D2
:10030000604393FAA3F3B3FA83F399400A43016875
:100310004A6005E00168496821F4006102685160A3
:100320000168C96A21F470010268D1620168CA6A71
:10033000818B491E42EA01510268D16201688968D5
:1003400021F400710268916001688A68016B42EAD9
:100350004121026891600168896821F48061026826
:10036000916001688A68416942EA8121026891606E
:100370007047000004230140002001400100000FED
:1003800000BFFEE710B5024800F042FA10BD0000C1
:10039000440000200146087810381823B0FBF3F21F
:1003A0000848805C4865032A05D908686FF309008E
:1003B000001D086503E008686FF309000865086D13
:1003C000704700007433000810B50024144800681A
:1003D00020F440301249086008460068086004E0D4
:1003E000601CC4B2012002F063FF0E48006808B12F
:1003F000C82CF5DBC82C01DB012010BD002404E073
:10040000601CC4B2012002F053FF0648006808B91E
:10041000F02CF5DBF02C01DB0120EEE70020ECE70F
:10042000000002402002404200B587B000BF00201B
:1004300001900F48006840F001000D49086008462F
:10044000006800F00100019000BF00BF8815029015
:100450000120039004900220059002A9054800F0B5
:10046000C5FB00F009F8FFF7AFFF07B000BD0000C3
:10047000303802400008024010B50D48006820F4F2
:1004800040300B4908600846006840F4803008603E
:1004900000200849086040F2EE2002F009FF012028
:1004A0000549C1F8A0020F2002F002FF10BD0000B4
:1004B00000000240A00240420000404210B5444803
:1004C00090F82C00002879D00021424801F08EFDE0
:1004D0003F498860084680684968884224D93C487A
:1004E00080683B494968411A394890F82D0000F06E
:1004F000070237480C3040F822100C3890F82D00D5
:10050000401C334981F82D00084690F82E00082839
:1005100005DA084690F82E00401C81F82E002C4881
:1005200080682B49486029E0294840684FF6FF71F0
:10053000081A294908602648806809680144244847
:1005400090F82D0000F0070221480C3040F82210EE
:100550000C3890F82D00401C1D4981F82D000846EC
:1005600090F82E00082805DA084690F82E00401C66
:1005700081F82E001648806815494860144890F8A4
:100580002E00082823DB002409E01148016B0C3001
:1005900050F8240008440E490863601CC4B2082CBB
:1005A000F3DB0B48006B4FF4FA51B0FBF1F0084954
:1005B0000863002081F82E0009E0FFE700210548CC
:1005C00001F014FD02494860012081F82C0010BDA3
:1005D000442D00202C2E00203400002002210B4A44
:1005E0001160002182F82C105160916082F82D106A
:1005F00082F82E10002006E0002204490C3141F858
:100600002020411CC8B20828F6DB7047442D00208A
:1006100000BFFEE710B54FF4006000F0D9FA10BD3E
:1006200070B504461D460023B5F5804F13D154F82C
:1006300022300C480340D1E9000640EA06108E68DB
:1006400040EA06208E8940EA06408E693043034323
:1006500044F8223003E06FF0704044F8220000209C
:1006600070BD00000000F0CF10B5024600230868FE
:1006700052F8203018480340D1E901042043CC68E7
:1006800020430C6920434C6920438C692043CC698A
:1006900020430C6A20434C6A20438C6A2043CC6A76
:1006A0002043CC6B20430C6B20434C6B2043034313
:1006B0008868082801D143F04003086842F82030D8
:1006C000486BB0F5801F05D1086818B110684C6BF5
:1006D00020431060002010BD8000E0FF30B50346CD
:1006E00014460022601C53F8202002F04042D1E959
:1006F000000540EA05108D6840EA05208D8940EA32
:100700000545088A401E45EA0055087D801E45EAD9
:1007100000608D6928430243601C43F8202018685C
:1007200000F4801038B1586820F47002088A401E26
:1007300042EA00525A60002030BD000070B5044605
:1007400000250CB9012070BD1549A06A884200D06F
:1007500000BF206C30B90020606484F83C00204663
:1007600000F020F8206C00F0100088B9206C20F414
:10077000885040F0020020642046FFF745FD00202D
:100780006064206C20F0020040F00100206400E072
:10079000012500BF002084F83C0000BF2846D2E7B6
:1007A0000100000F10B586B0044600BF0020009085
:1007B0001548006840F480601349086008460068E6
:1007C00000F48060009000BF00BF00BF00200090D8
:1007D0000D481438006840F020000B4914390860B7
:1007E0000846006800F02000009000BF00BF4815D8
:1007F0000190032002900020039001A9034800F01B
:10080000F5F906B010BD0000443802400014024063
:1008100070B50446256D286894F85420082191404D
:10082000084000B32068006800F00400D8B12068D8
:10083000006820F004002168086094F85410082033
:100840008840A860E06C40F00100E064042084F877
:10085000350000BF002084F8340000BFA06C10B148
:100860002046A16C8847286894F854206D4991402F
:10087000084000B32068406900F08000D8B12068CB
:10088000406920F080002168486194F85410654860
:100890008840A860E06C40F00200E064042084F826
:1008A000350000BF002084F8340000BFA06C10B1F8
:1008B0002046A16C8847286894F854205949C91CDF
:1008C0009140084008B32068006800F00200E0B1E1
:1008D0002068006820F002002168086094F8541035
:1008E0005048C01C8840A860E06C40F00400E06400
:1008F000042084F8350000BF002084F8340000BFD5
:10090000A06C10B12046A16C8847286894F8542048
:10091000102191400840C0B32068006800F0080032
:1009200098B32068006800F48020B0B194F85410A7
:1009300010208840A8602068006800F4002018B9E2
:10094000312084F835001BE02068006800F40020A6
:10095000B0B1412084F8350012E02068006800F44E
:10096000807028B92068006820F0080021680860BD
:1009700094F8541010208840A860312084F8350085
:10098000206C10B12046216C8847286894F85420C8
:1009900020219140084018B32068006800F0100042
:1009A000F0B12068006800F48020D0B194F85410B1
:1009B00020208840A8602068006800F4002028B942
:1009C000606C68B12046616C884729E02068006847
:1009D00000F4002020B1E06B10B12046E16B8847A5
:1009E0001EE02068006800F4807028B92068006864
:1009F00020F010002168086094F8541020208840EE
:100A0000A860E06CE064112084F8350000BF00208D
:100A100084F8340000BFE06B10B12046E16B8847DA
:100A200070BD00000100800070B5044600250CB9BF
:100A3000012070BD606A00B100BF022084F835005B
:100A40002068056818480540D4E901010843E168B9
:100A500008432169084361690843A1690843E169C2
:100A60000843216A08430543606A042803D1D4E996
:100A70000B0108430543206805602068456925F09F
:100A80000705606A0543606A042801D1A06A05432E
:100A9000206845612046FFF77DFC0020E0640120CE
:100AA00084F835000020C4E73F8010F000B587B01F
:100AB0002A48006808B107B000BD01202749086036
:100AC00000BF002001902648006840F00100244942
:100AD00008600846006800F00100019000BF00BFF8
:100AE0004FF23F0002900220039000200490032068
:100AF00005900C20069002A91A4800F077F840F201
:100B00003F400290022003900020049003200590B3
:100B10000C20069002A9144800F068F84FF6837084
:100B200002900220039000200490032005900C20E6
:100B3000069002A90D4800F059F84FF63370029064
:100B40000220039000200490032005900C200690C2
:100B500002A9074800F04AF800BFACE71C000020DB
:100B600038380240001402400018024000100240D1
:100B7000000C024070B50546042D20D0082D1FD072
:100B8000B5F5006F03D0B5F5005F1BD119E04FF448
:100B900000610D4800F038F980B9002408E04FF0FA
:100BA000C8400088094901EB04210880601CC4B2D8
:100BB000082CF4DB0120054981F8050802E001E07A
:100BC00000E000BF00BF70BD000002401C240020F8
:100BD00010B5044604480068204020B10248046073
:100BE0002046FFF7C7FF10BD143C0140F8B5024690
:100BF0000B460025002400200021E6E0012606FA2D
:100C000001F51E6806EA0504AC4273D15E68022E47
:100C100002D05E68122E13D1CF0802F1200656F8DA
:100C200027004E07F70E0F26BE40B0434F07FF0EBA
:100C30001E69BE403043CF0802F1200646F8270067
:100C400010684F000326BE40B0431E7906F003062D
:100C50004F00BE40304310605E68012E08D05E68D1
:100C6000022E05D05E68112E02D05E68122E13D1BE
:100C700090684F000326BE40B0434F00DE68BE4080
:100C800030439060506801268E40B0431E79C6F311
:100C900000168E4030435060D0684F000326BE409F
:100CA000B0434F009E68BE403043D0605E6806F09F
:100CB0008056B6F1805FA8D100BF00260096454E51
:100CC000366846F48046434F3E603E46366806F43A
:100CD0008046009600BF00BF3F4E8F0856F82700A1
:100CE0008E07370F0F26BE40B0433C4EB24202D1B2
:100CF00000262EE068E03A4EB24201D1012628E0FB
:100D0000384EB24201D1022623E0374EB24201D121
:100D100003261EE0354EB24201D1042619E0344EBE
:100D2000B24201D1052614E0324EB24201D106266C
:100D30000FE0314EB24201D107260AE02F4EB242F7
:100D400001D1082605E02E4EB24201D1092600E06D
:100D50000A268F073F0FBE4030431F4E8F0846F8CC
:100D60002700284E3068A0435E6806F48036B6F54A
:100D7000803F00D12043234E3060361D3068A043B1
:100D80005E6806F40036B6F5003F00D120431D4EE4
:100D9000361D3060361D3068A0435E6806F480164C
:100DA000B6F5801F00D12043164E08363060361D40
:100DB0003068A0435E6806F40016B6F5001F00D147
:100DC0002043104E0C363060491C1029FFF416AF3A
:100DD000F8BD0000443802400838014000000240DD
:100DE0000004024000080240000C024000100240D3
:100DF0000014024000180240001C02400020024083
:100E000000240240003C0140024613690B400BB134
:100E1000012000E0002070470AB1816101E00B046D
:100E2000836170470148006870470000000000209F
:100E300070B50446002600250CB9012070BD94F859
:100E40003D0028B9002084F83C00204600F084F8DA
:100E5000242084F83D002068006820F0010021680B
:100E6000086000F099FA05463948B5FBF0F62068AD
:100E7000466038496068884201D8701C07E04FF42A
:100E8000967070434FF47A71B0FBF1F0401C21680A
:100E900008623049606888420ED860684000B5FB3F
:100EA000F0F0C0F30B00042801D204202DE06068AC
:100EB0004000B5FBF0F028E0A06828B9606800EBBE
:100EC0004000B5FBF0F008E0606800EBC00101EB0A
:100ED0000010B5FBF0F040F48040C0F30B0008B9FF
:100EE000012012E0A06828B9606800EB4000B5FB63
:100EF000F0F008E0606800EBC00101EB0010B5FB0A
:100F0000F0F040F4804040F400402168C861D4E92A
:100F10000701084321680860D4E9031008432168E9
:100F20008860D4E9050108432168C860206800682A
:100F300040F001002168086000202064202084F82F
:100F40003D000020206384F83E0000BF76E70000EB
:100F500040420F00A086010010B586B00446C020B4
:100F6000019012200290012003900320049004209D
:100F7000059001A90A48FFF739FE00BF0020009044
:100F80000848006840F400100649086008460068F8
:100F900000F40010009000BF00BF06B010BD0000BC
:100FA000000402404038024002480068401C0149E9
:100FB000086070470000002010B50D48006840F43C
:100FC00000700B4908600846006840F480600860C3
:100FD0000846006840F480700860032000F088F83C
:100FE000002000F007F800F017F8002010BD000006
:100FF000003C024070B5044600F0B2F94FF47A713B
:10100000B0FBF1F5284600F0D2FD00222146501E2B
:1010100000F030F8002070BD10B5032000F068F833
:10102000002211466FF00B0000F024F80022114658
:101030006FF00A0000F01EF8002211466FF0090060
:1010400000F018F800221146101F00F013F80022DB
:101050001146501E00F00EF810BD00BF00F01F0238
:10106000012191404209920002F1E022C2F80011F0
:1010700000BF70472DE9F05F80460D4616460027F9
:1010800001F0E8F9074639462A46334601F00700E1
:10109000C0F1070ABAF1040F02D94FF0040A01E0C7
:1010A000C0F1070AD14600F1040ABAF1070F02D2D3
:1010B0004FF0000A01E0A0F1030AD4464FF0010A04
:1010C0000AFA09FAAAF1010A0AEA020A0AFA0CFA69
:1010D0004FF0010B0BFA0CFBABF1010B0BEA030B0E
:1010E0004AEA0B042146404601F0BCF9BDE8F09FF6
:1010F00000BF00F00702064B19684FF6FF031940C6
:10110000044B0B4343EA0221014B196000BF7047B7
:101110000CED00E00000FA0538B5002400BF002007
:1011200000902348006840F080502149086008463C
:10113000006800F08050009000BF00BF0120010453
:1011400091FAA1F1B1FA81F11A4A42F82100FFF7B0
:1011500069FE044607E0FFF765FE001BB0F57A7FE5
:1011600001D9032038BD1448406800F48030B0F540
:10117000803FF0D10120410491FAA1F1B1FA81F14F
:101180000C4A42F82100FFF74DFE044607E0FFF746
:1011900049FE001BB0F57A7F01D90320E2E706483B
:1011A000406800F40030B0F5003FF0D10020D9E7EE
:1011B0004038024000000E420070004070B5044606
:1011C0000D4600266448006800F00F00A84209D2CE
:1011D00061490D700846006800F00F00A84201D078
:1011E000012070BD207800F00200022807D15B4882
:1011F000006820F0F000A168084358490860207892
:1012000000F00100002877D06068012807D153481A
:1012100008380068C0F34040B8B90120E1E76068D1
:10122000022802D06068032807D14C4808380068BB
:10123000C0F3406048B90120D3E748480838006847
:10124000C0F3400008B90120CBE74448006820F013
:1012500003006168084341490860FFF7E3FD064663
:101260006068012810D108E0FFF7DCFD801B41F227
:101270008831884201D90320B3E73848006800F07C
:101280000C000428F0D137E06068022810D108E093
:10129000FFF7C8FD801B41F28831884201D9032045
:1012A0009FE72E48006800F00C000828F0D123E0EA
:1012B0006068032810D108E0FFF7B4FD801B41F2FD
:1012C0008831884201D903208BE72448006800F068
:1012D0000C000328F0D10FE008E0FFF7A3FD801B0E
:1012E00041F28831884201D903207AE71B4800681F
:1012F00000F00C000028F0D11748006800F00F0043
:10130000A84209D914490D700846006800F00F0082
:10131000A84201D0012064E7207800F004000428EE
:1013200007D10E48006820F4E050E16808430B49FB
:101330000860207800F00800082808D107480068F5
:1013400020F46040216940EAC1000449086000209F
:10135000FFF750FE002044E7003C024008380240FE
:1013600010B500F045F80949096801F0F001F022D4
:1013700092FAA2F2B2FA82F2D140054A515CC84018
:10138000044908600846006810BD000008380240A3
:10139000643300084000002010B5FFF7E1FF074963
:1013A000096801F4E0514FF4E05292FAA2F2B2FA65
:1013B00082F2D140024A515CC84010BD0838024058
:1013C0006433000810B5FFF7CBFF0749096801F443
:1013D00060414FF4604292FAA2F2B2FA82F2D14036
:1013E000024A515CC84010BD08380240643300080E
:1013F00070B50021002200230020274C246804F04F
:101400000C0424B1042C04D0082C41D103E023485F
:1014100040E023483EE0204C241F246804F03F01B4
:101420001D4C241F246804F4800484B11C4CB4FBBC
:10143000F1F5194C241F246847F6C076344096FA1B
:10144000A6F6B6FA86F6F44005FB04F20FE0134C5C
:10145000B4FBF1F5104C241F246847F6C0763440E5
:1014600096FAA6F6B6FA86F6F44005FB04F20A4CA4
:10147000241F246804F440344FF4403595FAA5F550
:10148000B5FA85F5EC40641C6300B2FBF3F001E0B3
:10149000024800BF00BF70BD083802400024F400BD
:1014A000002D310138B504460025207800F00100F8
:1014B000002848D0DE48006800F00C0004280DD059
:1014C000DB48006800F00C00082811D1D848001F44
:1014D000006800F48000B0F5800F09D1D4480838C6
:1014E0000068C0F3404070B3606860BB012038BD45
:1014F0002079CF49891F0870606890B1FFF792FC8E
:10150000054606E0FFF78EFC401B642801D9032046
:10151000EDE7C74808380068C0F340400028F1D024
:1015200011E0FFF77FFC054606E0FFF77BFC401B60
:10153000642801D90320DAE7BD4808380068C0F301
:1015400040400028F1D1207800F00200022869D143
:10155000B748006800F00C0058B1B548006800F0CA
:101560000C00082821D1B248001F006800F4800058
:10157000D8B9AF4808380068C0F3400020B1E0682F
:10158000012801D00120B2E7A9480838006820F0FE
:10159000F800F82292FAA2F2B2FA82F2216991409E
:1015A0000843A349083908603CE0E06828B30120FB
:1015B000A0490860FFF736FC054606E0FFF732FC5D
:1015C000401B022801D9032091E799480838006898
:1015D000C0F340000028F1D095480838006820F09A
:1015E000F800F82292FAA2F2B2FA82F2216991404E
:1015F00008438F490839086014E000208D490860CD
:10160000FFF710FC054606E0FFF70CFC401B022824
:1016100001D903206BE7864808380068C0F3400012
:101620000028F1D1207800F0080008282CD160694A
:10163000A8B1012080490860FFF7F4FB054606E0E9
:10164000FFF7F0FB401B022801D903204FE7784841
:101650006C300068C0F340000028F1D014E0002096
:1016600075490860FFF7DEFB054606E0FFF7DAFB89
:10167000401B022801D9032039E76D486C3000680F
:10168000C0F340000028F1D1207800F004000428C5
:1016900057D100BF0020009065483830006840F006
:1016A00080506349383108600846006800F0805077
:1016B000009000BF00BF6148006840F480705F493F
:1016C0000860FFF7AFFB054606E0FFF7ABFB401BEA
:1016D000022801D903200AE75848006800F4807006
:1016E0000028F2D0207A524968310870A068A0B171
:1016F000FFF798FB054608E0FFF794FB401B41F21B
:101700008831884201D90320F1E6494868300068F1
:10171000C0F340000028EFD013E0FFF783FB05463D
:1017200008E0FFF77FFB401B41F28831884201D976
:101730000320DCE63E4868300068C0F34000002823
:10174000EFD1A069F0B33A48006800F00C00082817
:1017500069D0A069022850D1002036490866FFF7F9
:1017600061FB054606E0FFF75DFB401B022801D93F
:101770000320BCE62E4808380068C0F3406000280B
:10178000F1D1D4E90701084347F6C07292FAA2F2F8
:10179000B2FA82F2616A914008430122A16AC2EB67
:1017A00051014FF4403292FAA2F2B2FA82F2914021
:1017B00008434FF0706292FAA2F2B2FA82F2E16A42
:1017C000914000E031E008431949091F08600120F9
:1017D00018490866FFF726FB054606E0FFF722FBDF
:1017E000401B022801D9032081E61148083800680F
:1017F000C0F340600028F1D017E000200D490866D2
:10180000FFF710FB054606E0FFF70CFB401B022824
:1018100001D903206BE6064808380068C0F3406031
:101820000028F1D101E0012061E600205FE6000020
:101830000838024000004742800E474200700040D6
:1018400010B504460CB9012010BD606A00B900BF94
:10185000A06AB0F5005F00D100BF94F8510028B92C
:10186000002084F85000204600F03AF8022084F866
:1018700051002068006820F0400021680860D4E929
:1018800001010843E168084321690843616908438D
:10189000218B01F400710843E1690843216A084380
:1018A000A16A0843216808600421A06901EA104088
:1018B000616A084321684860A06AB0F5005F02D100
:1018C0002168E06A08612068C06920F4006021682E
:1018D000C86100206065012084F851000020B3E752
:1018E00070472DE9FC4704460D4616461F46DDF8B5
:1018F0002880002001908146824600BF94F8500065
:10190000012802D10220BDE8FC87012084F85000A4
:1019100000BFFFF787FA814694F8510001280CD0E8
:101920006068B0F5827F05D1A06818B994F85100BD
:10193000042802D04FF0020AE9E00DB106B117B950
:101940004FF0010AE3E094F85100012802D105208C
:1019500084F8510000206065A663E787A7872563A8
:10196000E786A78620646064A06AB0F5005F0ED1A8
:1019700000BF206800684DF6FF71084021680860CC
:101980002068006840F400502168086000BF2068AB
:10199000006800F04000402805D02068006840F052
:1019A000400021680860E068B0F5006F3CD134E089
:1019B000E08EC0B12068806800F00200022812D1D9
:1019C00028882168C860AD1CE08E401EE086E08E4D
:1019D00048B9A06AB0F5005F05D12068006840F4FE
:1019E000805021680860E08F58B12068806800F05E
:1019F000010030B12068C0683080B61CE08F401E06
:101A0000E08708F1010040B1FFF70CFAA0EB0900F4
:101A1000404502D34FF0030A79E0E08E0028C7D199
:101A2000E08F0028C4D13BE034E0E08EC0B12068F4
:101A3000806800F00200022812D115F8010B21681D
:101A40000873E08E401EE086E08E48B9A06AB0F5CB
:101A5000005F05D12068006840F48050216808606C
:101A6000E08F58B12068806800F0010030B1206834
:101A7000C06806F8010BE08F401EE08708F1010006
:101A800040B1FFF7CFF9A0EB0900404502D34FF07A
:101A9000030A3CE0E08E0028C7D1E08F0028C4D1C3
:101AA000A06AB0F5005F15D14346012211462046D9
:101AB000CDF8009000F068FD30B1606D40F002009C
:101AC00060654FF0030A22E02068C06880B2019090
:101AD000BDF804002068806800F01000102809D1CB
:101AE000606D40F0020060654FF6EF70216888601D
:101AF0004FF0010A4A464146204600F031FD28B128
:101B0000606D40F0200060654FF0010A00BF0120C9
:101B100084F8510000BF002084F8500000BF5046F8
:101B2000F1E670B504460E4615460CB9012070BDAD
:101B300094F8490028B9002084F84800204600F0B5
:101B40001CF804F108012068FEF78EFD3146A268FA
:101B50002068FEF7C3FD2946236BD4E90102FEF796
:101B60005FFDA168206850F8210040F00100A268E4
:101B7000216841F822000020D9E710B50446FEF79D
:101B800095FF10BD042808D14FF0E021096941F00C
:101B900004014FF0E022116107E04FF0E0210969F4
:101BA00021F004014FF0E02211617047704770B5D9
:101BB00004462546681EB0F1807F01D301200FE066
:101BC000681E4FF0E02148610F214FF0FF3000F018
:101BD00049FC00204FF0E0218861072008610020C7
:101BE00070BD10B5FFF7E2FF10BD704770470000F1
:101BF00010B5044603492068884201D1FEF75EFC17
:101C000010BD0000001C00402DE9F04104460D46C7
:101C1000164600BF94F83800012802D10220BDE822
:101C2000F081012084F8380000BF022084F83900D8
:101C300096B9EB68D5E90012206800F01DFF206816
:101C4000806920F00C002168886120688069A9689B
:101C50000843216888613DE0042E13D1EB68D5E983
:101C60000012206800F054FF2068806920F4406072
:101C70002168886120688069A96840EA012021689C
:101C8000886127E0082E12D1EB68D5E900122068A0
:101C900000F05DFF2068C06920F00C002168C86179
:101CA0002068C069A96808432168C86112E0EB6830
:101CB000D5E90012206800F068FF2068C06920F4B0
:101CC00040602168C8612068C069A96840EA0120B5
:101CD0002168C861012084F8390000BF002084F821
:101CE000380000BF00BF9AE710B504460CB90120C8
:101CF00010BD94F8390028B9002084F83800204637
:101D000000F00CF8022084F83900211D206800F052
:101D100033FE012084F839000020E9E710B586B0D1
:101D2000044600BF002000901B48006840F080007F
:101D3000194908600846006800F08000009000BF64
:101D400000BF00BF0020009013481038006840F02A
:101D500020001149103908600846006800F0200092
:101D6000009000BF00BF8815019002200290012062
:101D70000390032004900920059001A90748FEF76D
:101D800035FF002211462C20FFF774F92C20FFF7B5
:101D900064F906B010BD0000403802400014024053
:101DA00030B504460D4635B1042D0BD0082D10D0AA
:101DB0000C2D1CD114E02068C06840F0020021689E
:101DC000C86015E02068C06840F004002168C86061
:101DD0000EE02068C06840F008002168C86007E095
:101DE0002068C06840F010002168C86000E000BFB3
:101DF00000BF01222946206800F030FE20680068FC
:101E000040F0010021680860002030BD10B5044694
:101E100020680069C0F34000D8B12068C068C0F3F2
:101E20004000B0B16FF00200216808610120207607
:101E30002068806900F0030018B12046FFF7D8FE43
:101E400005E0204600F0ADF8204600F0ABF8002099
:101E5000207620680069C0F38000D8B12068C0688F
:101E6000C0F38000B0B16FF0040021680861022067
:101E700020762068806900F4407018B12046FFF792
:101E8000B7FE05E0204600F08CF8204600F08AF806
:101E90000020207620680069C0F3C000D8B1206817
:101EA000C068C0F3C000B0B16FF0080021680861DD
:101EB000042020762068C06900F0030018B1204695
:101EC000FFF796FE05E0204600F06BF8204600F094
:101ED00069F80020207620680069C0F30010D8B1AE
:101EE0002068C068C0F30010B0B16FF01000216826
:101EF0000861082020762068C06900F4407018B19D
:101F00002046FFF775FE05E0204600F04AF820461F
:101F100000F048F8002020762068006900F00100F9
:101F200058B12068C06800F0010030B16FF00100C6
:101F300021680861204600F037F820680069C0F386
:101F4000C01058B12068C068C0F3C01030B16FF045
:101F50008000216808612046FFF747FE206800697D
:101F6000C0F3801058B12068C068C0F3801030B151
:101F70006FF0400021680861204600F061F8206899
:101F80000069C0F3401058B12068C068C0F3401029
:101F900030B16FF02000216808612046FFF726FE6F
:101FA00010BD7047704700000D490968491C0C4A74
:101FB00011600C49884211D111460968B1F57A7F48
:101FC0000CD90949097819B90121074A117002E0B1
:101FD0000021054A11700021014A1160704700007C
:101FE00034000020F02D00201800002002460023BD
:101FF00000BF92F83800012801D10220704701206B
:1020000082F8380000BF31B1042907D0082908D070
:102010000C290CD108E01068436B09E01068836B51
:1020200006E01068C36B03E01068036C00E000BFBB
:1020300000BF00BF002082F8380000BF1846DDE76F
:10204000704710B504460CB9012010BDA06900B15D
:1020500000E000BF94F8390028B9002084F8380067
:10206000204600F027F8242084F839002068C06852
:1020700020F400502168C860204600F0A7FD2068C9
:10208000006920F49040216808612068406920F0D0
:102090002A00216848612068C06840F40050216827
:1020A000C8600020E063202084F8390084F83A00FA
:1020B0000020CAE770472DE9F04104460D46164658
:1020C000984694F83900202855D105B116B9012059
:1020D000BDE8F08100BF94F83800012801D102204A
:1020E000F6E7012084F8380000BF0020E0632120DB
:1020F00084F83900A684E68428E0E08C401EE08461
:10210000A068B0F5805F14D14346002280212046AC
:1021100000F010FF08B10320DAE72F463888C0F33B
:10212000080021684860206908B9AD1C0EE06D1CEC
:102130000CE0434600228021204600F0FBFE08B15F
:102140000320C5E715F8010B21684860E08C0028E2
:10215000D3D1434600224021204600F0EBFE08B1D7
:102160000320B5E7202084F8390000BF002084F860
:10217000380000BFACE70220AAE700BFFEE700007E
:1021800000B587B019481A4908601A48486000210C
:1021900017488160C1604FF48041016100214161B5
:1021A0008161C1610162FEF743FEC02002901220EE
:1021B000039001200490032005900420069002A9BA
:1021C0000D48FEF713FD00BF002001900B4800688A
:1021D00040F40010094908600846006800F4001047
:1021E000019000BF00BF07B000BD000000540040D8
:1021F000CC2C0020A08601000004024040380240A0
:1022000000B587B000BF002001901048006840F082
:1022100004000E4908600846006800F004000190C0
:1022200000BF00BF012289140948FEF7F5FD4FF4F5
:10223000805002900120039004900220059002A992
:102240000348FEF7D3FC07B000BD00003038024061
:102250000008024008B500BF002000903B4800681D
:1022600040F02000394908600846006800F020006E
:10227000009000BF00BF00BF00200090084600682B
:1022800040F0800008600846006800F08000009080
:1022900000BF00BF00BF002000900846006840F06B
:1022A000010008600846006800F00100009000BFCF
:1022B00000BF00BF002000900846006840F04000CA
:1022C00008600846006800F04000009000BF00BFB2
:1022D00000BF002000900846006840F01000086031
:1022E0000846006800F01000009000BF00BF00BF6B
:1022F000002000900846006840F00800086008468A
:10230000006800F00800009000BF00BF00BF002080
:1023100000900846006840F0020008600846006827
:1023200000F00200009000BF00BF00BF002000903E
:102330000846006840F0040008600846006800F0A5
:102340000400009000BF00BF08BD0000303802400C
:1023500008B500BF002000902548006840F48000C8
:10236000234908600846006800F48000009000BF20
:1023700000BF2048204908604FF0006048604021BD
:102380001D4881600021C1604FF48061016100211E
:1023900041618161C16101624162FEF745FB00BF9D
:1023A00015481649086308461349886300BF114859
:1023B0001838134908604FF02060486040211048E9
:1023C00081600021C1604FF48061016100214161A1
:1023D0008161C16101624162FEF726FB00BF0848CE
:1023E0000849086308460649886300BF08BD000025
:1023F00030380240B864024044000020F42000203D
:102400009C0000203421002010B50D480D490860C3
:102410004FF48030486000210A488160C16001614A
:10242000416181610121C16100210162416206496E
:1024300081620021C1620163FEF780F910BD0000D6
:1024400000220140682E00200100000F00BFFEE7BF
:102450007047000002480068C0F302207047000087
:102460000CED00E010B5002807DA0A07140E054A43
:1024700000F00F031B1FD45403E00A07130E024A97
:10248000135410BD18ED00E000E400E010B59F20EB
:1024900007490870002048708870C870087148713A
:1024A0008871C871087248720A2000F047F810BDA0
:1024B0007421002000B587B000BF002001901B48A8
:1024C000006840F48050194908600846006800F42C
:1024D0008050019000BF00BFF020029002200390C6
:1024E00000200490032005900520069002A91048C2
:1024F000FEF77CFB0F48104908604FF4827048607B
:1025000000210D488160C160016141614FF480216B
:1025100081610821C16100210162416281620A2159
:10252000C162FFF78DF907B000BD000044380240DA
:1025300000000240003001407423002038B50446FA
:102540004FF47A702346034A034900900348FFF78B
:10255000C8F938BD742200207421002074230020A3
:10256000F8B504460D4616462B460022802120462B
:10257000009600F009F828B1606D40F02000606519
:102580000320F8BD0020FCE72DE9F04104460E468B
:1025900017461D46DDF818803FE0681CE0B32DB1FA
:1025A000FEF740FCA0EB0800A84236D32068406844
:1025B00020F0E000216848606068B0F5827F0DD1AE
:1025C000A068B0F5004F03D0A068B0F5806F05D1CA
:1025D0002068006820F0400021680860A06AB0F51B
:1025E000005F0ED100BF206800684DF6FF71084003
:1025F000216808602068006840F400502168086085
:1026000000BF012084F8510000BF002084F8500072
:1026100000BF0320BDE8F081FFE7206880683040FC
:10262000B842BAD10020F5E700B58DB000BF002058
:1026300000905D48006840F020005B490860084653
:10264000006800F02000009000BF00BF00BF002025
:1026500000900846006840F01000086008460068D6
:1026600000F01000009000BF00BF00BF00200090ED
:102670000846006840F0080008600846006800F05E
:102680000800009000BF00BF00BF00200090084677
:10269000006840F0400008600846006800F0400014
:1026A000009000BF00BF00BF002000903E480830EF
:1026B000006840F001003C490831086008460068A5
:1026C00000F00100009000BF00BF4FF23F000890F3
:1026D0000220099000200A9003200B900C200C90FF
:1026E00008A93248FEF782FA40F23F4008900220E3
:1026F000099000200A9003200B900C200C9008A950
:102700002B48FEF773FA4FF6837008900220099069
:1027100000200A9003200B900C200C9008A925485B
:10272000FEF764FA4FF633700890022009900020FB
:102730000A9003200B900C200C9008A91E48FEF76D
:1027400055FA4FF020401D4908601D48486004209C
:10275000886000211948C160016110214161002198
:102760008161C161016241624FF480518162002147
:10277000C162016341638163C163416405200190CB
:102780000F2002902D2003900F2004901020059020
:102790001120069000200790002201A90748FFF7AA
:1027A000C0F90DB000BD00003038024000140240F6
:1027B0000018024000100240000C0240CC23002010
:1027C000040100A010B5FEF7EFFBFFF70AFA10BDF9
:1027D00010B592B000BF002000902A48006840F079
:1027E0008050284908600846006800F0805000903A
:1027F00000BF00BF00BF002000902348006840F4E5
:102800004040214908600846006800F440400090BC
:1028100000BF00BF01200690079002200C904105E8
:102820000D9114210E914FF4B4710F91022110916A
:102830000421119106A8FEF735FEFEF76DFC0F206E
:10284000019002200290002003904FF4A0500490C9
:102850004FF480500590052101A8FEF7AFFCFEF76C
:102860007FFD4FF47A71B0FBF1F42046FFF79FF93A
:102870000420FFF787F900221146501EFEF7FAFBED
:1028800012B010BD4038024000700040144800688B
:1028900040F47000124908601248006840F00100DE
:1028A0001049086000200F49083108600D48006891
:1028B0000D4908400B4908600C48091D0860081FB5
:1028C000006820F48020091F0860002005490C31B1
:1028D00008604FF0006002498039086070470000CE
:1028E00088ED00E000380240FFFFF6FE10300024C3
:1028F0007FB505460C460E480E4908600846446000
:1029000000218160C5600161FFF7EEF900200090B1
:1029100001200190002002900390002269460548A2
:10292000FFF772F900210348FFF73AFA7FBD000074
:10293000001C00402C2E002010B50248FFF766FA5C
:1029400010BD0000782D002010B50248FFF75EFA98
:1029500010BD0000B42D002010B50248FFF756FA54
:1029600010BD0000F02D002010B50248FFF74EFA10
:1029700010BD00002C2E0020002202682C4B984233
:102980000ED0B0F1804F0BD02A4B984208D02A4B82
:10299000984205D0294B984202D0294B984201D148
:1029A000012300E000231BB122F070024B681A43A0
:1029B0001F4B984220D0B0F1804F1DD01D4B984244
:1029C0001AD01D4B984217D01C4B984214D01C4B68
:1029D000984211D01B4B98420ED01B4B98420BD003
:1029E0001A4B984208D01A4B984205D0194B98427E
:1029F00002D0194B984201D1012300E000231BB102
:102A000022F44072CB681A4302608B68C3620B6881
:102A10008362074B984202D0094B984201D10123AF
:102A200000E000230BB10B6903630123436170478E
:102A3000000001400004004000080040000C00407D
:102A400000040140004001400044014000480140B2
:102A500000180040001C00400020004030B500235A
:102A6000012404FA01F3046A9C430462046A02FA32
:102A700001F52C43046230BD70B50C4615460021AB
:102A80000022066A26F0010606628169026A194E72
:102A9000B04214D0B0F1804F11D0174EB0420ED0DA
:102AA000164EB0420BD0164EB04208D0154EB04272
:102AB00005D0154EB04202D0144EB04201D10126CD
:102AC00000E000261EB121F00301294303E021F0BC
:102AD000030141F0010121F0F001F02606EA03169E
:102AE000314322F00A0204F00A0632438161026295
:102AF00070BD0000000001400004004000080040DC
:102B0000000C00400004014000400140001800405B
:102B100070B50C46154600210022066A26F0100604
:102B200006628169026A21F4407141EA052121F4BB
:102B300070414FF4704606EA0336314322F0A0029A
:102B4000A02606EA041632438161026270BD70B5A8
:102B50000C46154600210022066A26F4807606629D
:102B6000C169026A21F00301294321F0F001F02636
:102B700006EA0316314322F420624FF4206606EA87
:102B800004263243C161026270BD70B50C46154621
:102B900000210022066A26F480560662C169026A94
:102BA00021F4407141EA052121F470414FF470464F
:102BB00006EA0336314322F420424FF4204606EA67
:102BC00004363243C161026270BD00002DE9F0415C
:102BD000044600252068056925F44055E068054352
:102BE000206805612068C56849F20C608543216949
:102BF000A068084361690843E16908430543206808
:102C0000C5602068456925F44075A06905432068C2
:102C10004561E069B0F5004F7ED1C4492068884223
:102C200003D0C349206888425DD1FEF7CBFB00EB9F
:102C3000C00101EB001061684900B0FBF1F06421B4
:102C4000B0FBF1F00601FEF7BDFB00EBC00101EBAC
:102C5000001061684900B0FBF1F7FEF7B3FB00EB31
:102C6000C00101EB001061684900B0FBF1F0642184
:102C7000B0FBF1F000EBC00101EB0010A7EB80000E
:102C8000322101EBC0006421B0FBF1F000F0F8004C
:102C900006EB4006FEF796FB00EBC00101EB0010CF
:102CA00061684900B0FBF1F7FEF78CFB00EBC00157
:102CB00001EB001061684900B0FBF1F06421B0FB4A
:102CC000F1F000EBC00101EB0010A7EB8000322116
:102CD00001EBC0006421B0FBF1F000F007003044CC
:102CE0002168886020E1FEF757FB00EBC00101EB93
:102CF000001061684900B0FBF1F06421B0FBF1F015
:102D00000601FEF749FB00EBC00101EB0010616812
:102D10004900B0FBF1F700E045E0FEF73DFB00EBBA
:102D2000C00101EB001061684900B0FBF1F06421C3
:102D3000B0FBF1F000EBC00101EB0010A7EB80004D
:102D4000322101EBC0006421B0FBF1F000F0F8008B
:102D500006EB4006FEF720FB00EBC00101EB001084
:102D600061684900B0FBF1F7FEF716FB00EBC0010C
:102D700001EB001061684900B0FBF1F06421B0FB89
:102D8000F1F000EBC00101EB0010A7EB8000322155
:102D900001EBC0006421B0FBF1F000F0070030440B
:102DA00021688860C0E061492068884203D060499A
:102DB000206888425CD1FEF705FB00EBC00101EB07
:102DC000001061688900B0FBF1F6FEF7FBFA00EB3A
:102DD000C00101EB001061688900B0FBF1F06421D3
:102DE000B0FBF1F000EBC00101EB0010A6EB80009E
:102DF000322101EB00106421B0FBF1F000F0F0068D
:102E0000FEF7E0FA00EBC00101EB001061688900F9
:102E1000B0FBF1F06421B0FBF1F006EB0016FEF719
:102E2000D1FA00EBC00101EB001061688900B0FB32
:102E3000F1F7FEF7C7FA00EBC00101EB0010616883
:102E40008900B0FBF1F06421B0FBF1F000EBC001B0
:102E500001EB0010A7EB8000322101EB0010642190
:102E6000B0FBF1F000F00F003044216888605BE0B7
:102E7000FEF792FA00EBC00101EB001061688900D7
:102E8000B0FBF1F6FEF788FA00EBC00101EB001091
:102E900061688900B0FBF1F06421B0FBF1F000EB58
:102EA000C00101EB0010A6EB8000322101EB001005
:102EB0006421B0FBF1F000F0F006FEF76DFA00EBD4
:102EC000C00101EB001061688900B0FBF1F06421E2
:102ED000B0FBF1F006EB0016FEF75EFA00EBC00166
:102EE00001EB001061688900B0FBF1F7FEF754FABE
:102EF00000EBC00101EB001061688900B0FBF1F04C
:102F00006421B0FBF1F000EBC00101EB0010A7EB76
:102F10008000322101EB00106421B0FBF1F000F0E1
:102F20000F00304421688860BDE8F0810010014046
:102F3000001401402DE9F04104460E4617461D4697
:102F40004FF00008FDF76EFF804677BB2FE0681C4E
:102F500060B32DB1FDF766FFA0EB0800A84226D9AB
:102F60002068C06820F080002168C8602068C068C0
:102F700020F020002168C8602068C06820F48070BC
:102F80002168C8602068406920F00100216848611C
:102F9000202084F8390084F83A0000BF002084F82B
:102FA000380000BF0320BDE8F0810BE0FFE7206898
:102FB00000683040B04201D1012000E0002000282C
:102FC000C5D037E02CE0681C50B32DB1FDF72AFFC7
:102FD000A0EB0800A84223D92068C06820F0800038
:102FE0002168C8602068C06820F020002168C8609F
:102FF0002068C06820F480702168C860206840693B
:1030000020F0010021684861202084F8390084F80C
:103010003A0000BF002084F8380000BF0320C2E758
:10302000206800683040B04201D1012000E000205B
:103030000028C8D10020B6E70948006800F0200049
:1030400060B10748406807490988C1F30B01064A87
:10305000505404480068401C024908607047000052
:103060000010014020000020F40000200948006802
:1030700000F0200068B10748001D00680649098873
:10308000C1F30B01054A505403480068401C024933
:10309000086070470014014028000020F410002050
:1030A00010B5064806490860084600F025F80020DB
:1030B000044908600449086010BD00000010014088
:1030C000F4200020200000202400002010B5064835
:1030D00006490860084600F00FF80020044908601F
:1030E0000449086010BD0000001401403421002094
:1030F000280000202C00002010B586B00446574957
:103100002068884252D100BF0020009054480068D7
:1031100040F01000524908600846006800F01000B6
:10312000009000BF00BF4FF4C060019002200290E9
:1031300001200390032004900720059001A949482D
:10314000FDF754FD00BF002000904548143800688A
:1031500040F001004249143908600846006800F058
:103160000100009000BF00BF3C483F4908604FF499
:10317000E130486000213C488160C16001610C2160
:10318000416100218161C161FEF75BFF3648006843
:10319000C06840F0200034490968C8600322114625
:1031A0002520FDF767FF2520FDF757FF2F492068F1
:1031B000884251D100BF002000902948006840F0AB
:1031C0002000274908600846006800F020000090B1
:1031D00000BF00BFC0200190022002900120039098
:1031E000032004900820059001A92148FDF7FEFC6A
:1031F00000BF002000901A481438006840F0040016
:103200001749143908600846006800F0040000906F
:1032100000BF00BF1548174908604FF4E13048600F
:10322000002114488160C16001610C2141610021CD
:103230008161C161FEF705FF0E480068C06840F07B
:1032400020000C490968C860032202214720FDF7CD
:1032500011FF4720FDF701FF06B010BD001001402F
:103260004438024000000240F420002000140140D5
:10327000000802403421002000BFFEE702E008C839
:10328000121F08C1002AFAD170477047002001E0E0
:1032900001C1121F002AFBD17047000010B504467F
:1032A0000420FEF76FFC0148046010BD30000020D0
:1032B00070B5034600224FF0E02675690D4E366862
:1032C00003FB06F44FF0E026B16910E04FF0E02672
:1032D000B06988420BD0884202D20E1A324402E012
:1032E0002E1A0E4432440146A24200D300E0EDE71C
:1032F00000BF70BD30000020FDF75EFEFFF768FAEA
:10330000B420FFF7CBFFFEF7A5FFFFF721F8FFF78B
:10331000C7FEFFF7DBFEFFF7CDF8FFF785F9FEF7F5
:103320002FFFFEF76DFF00200B490870FDF77CF8BA
:10333000FFF76AF859214FF0FF30FFF7D9FAFDF790
:103340004DF9FFF7A3F84FF47A730A2203490448B2
:10335000FEF7B1FE00BFFEE7180000207422002037
:10336000F420002000000000010203040102030415
:103370000607080900061016000610169C33000800
:1033800000000020440000007C320008E033000808
:10339000440000206C3200008C3200080000000065
:1033A000108B01008C1667756F2064652071696150
:1033B0006E670D0A00000000000000000000000021
:1033C00000000000000000000000000000000000FD
:1033D0000000000000000000000000000024F400D5
:04000005080001AD41
:00000001FF
